{
  "contractName": "RockPaperEth",
  "abi": [
    {
      "constant": true,
      "inputs": [],
      "name": "player1Hand",
      "outputs": [
        {
          "name": "",
          "type": "string"
        }
      ],
      "payable": false,
      "stateMutability": "view",
      "type": "function"
    },
    {
      "constant": false,
      "inputs": [],
      "name": "unpause",
      "outputs": [],
      "payable": false,
      "stateMutability": "nonpayable",
      "type": "function"
    },
    {
      "constant": true,
      "inputs": [],
      "name": "player2",
      "outputs": [
        {
          "name": "",
          "type": "address"
        }
      ],
      "payable": false,
      "stateMutability": "view",
      "type": "function"
    },
    {
      "constant": true,
      "inputs": [],
      "name": "paused",
      "outputs": [
        {
          "name": "",
          "type": "bool"
        }
      ],
      "payable": false,
      "stateMutability": "view",
      "type": "function"
    },
    {
      "constant": true,
      "inputs": [],
      "name": "player2Hand",
      "outputs": [
        {
          "name": "",
          "type": "string"
        }
      ],
      "payable": false,
      "stateMutability": "view",
      "type": "function"
    },
    {
      "constant": false,
      "inputs": [],
      "name": "renounceOwnership",
      "outputs": [],
      "payable": false,
      "stateMutability": "nonpayable",
      "type": "function"
    },
    {
      "constant": false,
      "inputs": [],
      "name": "pause",
      "outputs": [],
      "payable": false,
      "stateMutability": "nonpayable",
      "type": "function"
    },
    {
      "constant": true,
      "inputs": [],
      "name": "owner",
      "outputs": [
        {
          "name": "",
          "type": "address"
        }
      ],
      "payable": false,
      "stateMutability": "view",
      "type": "function"
    },
    {
      "constant": true,
      "inputs": [],
      "name": "player1",
      "outputs": [
        {
          "name": "",
          "type": "address"
        }
      ],
      "payable": false,
      "stateMutability": "view",
      "type": "function"
    },
    {
      "constant": false,
      "inputs": [
        {
          "name": "_newOwner",
          "type": "address"
        }
      ],
      "name": "transferOwnership",
      "outputs": [],
      "payable": false,
      "stateMutability": "nonpayable",
      "type": "function"
    },
    {
      "inputs": [],
      "payable": true,
      "stateMutability": "payable",
      "type": "constructor"
    },
    {
      "anonymous": false,
      "inputs": [
        {
          "indexed": false,
          "name": "_player",
          "type": "address"
        },
        {
          "indexed": false,
          "name": "_phase",
          "type": "uint256"
        }
      ],
      "name": "PlayerPhase",
      "type": "event"
    },
    {
      "anonymous": false,
      "inputs": [],
      "name": "Pause",
      "type": "event"
    },
    {
      "anonymous": false,
      "inputs": [],
      "name": "Unpause",
      "type": "event"
    },
    {
      "anonymous": false,
      "inputs": [
        {
          "indexed": true,
          "name": "previousOwner",
          "type": "address"
        }
      ],
      "name": "OwnershipRenounced",
      "type": "event"
    },
    {
      "anonymous": false,
      "inputs": [
        {
          "indexed": true,
          "name": "previousOwner",
          "type": "address"
        },
        {
          "indexed": true,
          "name": "newOwner",
          "type": "address"
        }
      ],
      "name": "OwnershipTransferred",
      "type": "event"
    },
    {
      "constant": false,
      "inputs": [],
      "name": "register",
      "outputs": [
        {
          "name": "x",
          "type": "bool"
        }
      ],
      "payable": true,
      "stateMutability": "payable",
      "type": "function"
    },
    {
      "constant": false,
      "inputs": [
        {
          "name": "hand",
          "type": "string"
        },
        {
          "name": "random",
          "type": "string"
        }
      ],
      "name": "encrypt",
      "outputs": [
        {
          "name": "x",
          "type": "bool"
        }
      ],
      "payable": false,
      "stateMutability": "nonpayable",
      "type": "function"
    },
    {
      "constant": false,
      "inputs": [
        {
          "name": "hand",
          "type": "string"
        },
        {
          "name": "random",
          "type": "string"
        }
      ],
      "name": "decrypt",
      "outputs": [
        {
          "name": "x",
          "type": "bool"
        }
      ],
      "payable": false,
      "stateMutability": "nonpayable",
      "type": "function"
    },
    {
      "constant": false,
      "inputs": [],
      "name": "finish",
      "outputs": [
        {
          "name": "x",
          "type": "int256"
        }
      ],
      "payable": false,
      "stateMutability": "nonpayable",
      "type": "function"
    },
    {
      "constant": true,
      "inputs": [],
      "name": "whatPhaseAmI",
      "outputs": [
        {
          "name": "x",
          "type": "int256"
        }
      ],
      "payable": false,
      "stateMutability": "view",
      "type": "function"
    },
    {
      "constant": true,
      "inputs": [],
      "name": "whatPhaseIsIt",
      "outputs": [
        {
          "name": "x",
          "type": "int256"
        }
      ],
      "payable": false,
      "stateMutability": "view",
      "type": "function"
    },
    {
      "constant": true,
      "inputs": [],
      "name": "whatPhaseAreThePlayers",
      "outputs": [
        {
          "name": "x",
          "type": "int256"
        },
        {
          "name": "y",
          "type": "int256"
        }
      ],
      "payable": false,
      "stateMutability": "view",
      "type": "function"
    },
    {
      "constant": true,
      "inputs": [],
      "name": "whoIsPlayer1",
      "outputs": [
        {
          "name": "x",
          "type": "address"
        }
      ],
      "payable": false,
      "stateMutability": "view",
      "type": "function"
    },
    {
      "constant": true,
      "inputs": [],
      "name": "whoIsPlayer2",
      "outputs": [
        {
          "name": "x",
          "type": "address"
        }
      ],
      "payable": false,
      "stateMutability": "view",
      "type": "function"
    },
    {
      "constant": true,
      "inputs": [],
      "name": "getContractBalance",
      "outputs": [
        {
          "name": "x",
          "type": "uint256"
        }
      ],
      "payable": false,
      "stateMutability": "view",
      "type": "function"
    },
    {
      "constant": false,
      "inputs": [],
      "name": "destroy",
      "outputs": [],
      "payable": false,
      "stateMutability": "nonpayable",
      "type": "function"
    }
  ],
  "bytecode": "0x608060405260008060146101000a81548160ff021916908315150217905550336000806101000a81548173ffffffffffffffffffffffffffffffffffffffff021916908373ffffffffffffffffffffffffffffffffffffffff16021790555060018060405180807f70617065720000000000000000000000000000000000000000000000000000008152506005019050908152602001604051809103902060405180807f726f636b0000000000000000000000000000000000000000000000000000000081525060040190509081526020016040518091039020819055506000600160405180807f70617065720000000000000000000000000000000000000000000000000000008152506005019050908152602001604051809103902060405180807f706170657200000000000000000000000000000000000000000000000000000081525060050190509081526020016040518091039020819055506002600160405180807f70617065720000000000000000000000000000000000000000000000000000008152506005019050908152602001604051809103902060405180807f73636973736f727300000000000000000000000000000000000000000000000081525060080190509081526020016040518091039020819055506000600160405180807f726f636b000000000000000000000000000000000000000000000000000000008152506004019050908152602001604051809103902060405180807f726f636b0000000000000000000000000000000000000000000000000000000081525060040190509081526020016040518091039020819055506002600160405180807f726f636b000000000000000000000000000000000000000000000000000000008152506004019050908152602001604051809103902060405180807f7061706572000000000000000000000000000000000000000000000000000000815250600501905090815260200160405180910390208190555060018060405180807f726f636b000000000000000000000000000000000000000000000000000000008152506004019050908152602001604051809103902060405180807f73636973736f727300000000000000000000000000000000000000000000000081525060080190509081526020016040518091039020819055506002600160405180807f73636973736f72730000000000000000000000000000000000000000000000008152506008019050908152602001604051809103902060405180807f726f636b00000000000000000000000000000000000000000000000000000000815250600401905090815260200160405180910390208190555060018060405180807f73636973736f72730000000000000000000000000000000000000000000000008152506008019050908152602001604051809103902060405180807f706170657200000000000000000000000000000000000000000000000000000081525060050190509081526020016040518091039020819055506000600160405180807f73636973736f72730000000000000000000000000000000000000000000000008152506008019050908152602001604051809103902060405180807f73636973736f72730000000000000000000000000000000000000000000000008152506008019050908152602001604051809103902081905550612812806104ea6000396000f30060806040526004361061011d576000357c0100000000000000000000000000000000000000000000000000000000900463ffffffff168063125704b814610122578063139fa71b146101e95780631aa3a0081461027957806325f1a7cf1461029b5780633f4ba83a1461036257806359a5f12d146103795780635c975abb146103d057806364f220e2146103ff578063653a681e1461048f5780636f9fb98a146104ba578063715018a6146104e557806383197ef0146104fc5780638456cb59146105135780638da5cb5b1461052a578063ca0f851b14610581578063d30895e4146105d8578063d457b94e1461062f578063d56b288914610686578063e0325eda146106b1578063e8a25907146106dc578063f2fde38b1461070e575b600080fd5b34801561012e57600080fd5b506101cf600480360381019080803590602001908201803590602001908080601f0160208091040260200160405190810160405280939291908181526020018383808284378201915050505050509192919290803590602001908201803590602001908080601f0160208091040260200160405190810160405280939291908181526020018383808284378201915050505050509192919290505050610751565b604051808215151515815260200191505060405180910390f35b3480156101f557600080fd5b506101fe610ac4565b6040518080602001828103825283818151815260200191508051906020019080838360005b8381101561023e578082015181840152602081019050610223565b50505050905090810190601f16801561026b5780820380516001836020036101000a031916815260200191505b509250505060405180910390f35b610281610b62565b604051808215151515815260200191505060405180910390f35b3480156102a757600080fd5b50610348600480360381019080803590602001908201803590602001908080601f0160208091040260200160405190810160405280939291908181526020018383808284378201915050505050509192919290803590602001908201803590602001908080601f0160208091040260200160405190810160405280939291908181526020018383808284378201915050505050509192919290505050610e45565b604051808215151515815260200191505060405180910390f35b34801561036e57600080fd5b50610377611237565b005b34801561038557600080fd5b5061038e6112f5565b604051808273ffffffffffffffffffffffffffffffffffffffff1673ffffffffffffffffffffffffffffffffffffffff16815260200191505060405180910390f35b3480156103dc57600080fd5b506103e561131b565b604051808215151515815260200191505060405180910390f35b34801561040b57600080fd5b5061041461132e565b6040518080602001828103825283818151815260200191508051906020019080838360005b83811015610454578082015181840152602081019050610439565b50505050905090810190601f1680156104815780820380516001836020036101000a031916815260200191505b509250505060405180910390f35b34801561049b57600080fd5b506104a46113cc565b6040518082815260200191505060405180910390f35b3480156104c657600080fd5b506104cf61151a565b6040518082815260200191505060405180910390f35b3480156104f157600080fd5b506104fa611539565b005b34801561050857600080fd5b5061051161163b565b005b34801561051f57600080fd5b506105286116d0565b005b34801561053657600080fd5b5061053f611790565b604051808273ffffffffffffffffffffffffffffffffffffffff1673ffffffffffffffffffffffffffffffffffffffff16815260200191505060405180910390f35b34801561058d57600080fd5b506105966117b5565b604051808273ffffffffffffffffffffffffffffffffffffffff1673ffffffffffffffffffffffffffffffffffffffff16815260200191505060405180910390f35b3480156105e457600080fd5b506105ed6117df565b604051808273ffffffffffffffffffffffffffffffffffffffff1673ffffffffffffffffffffffffffffffffffffffff16815260200191505060405180910390f35b34801561063b57600080fd5b50610644611805565b604051808273ffffffffffffffffffffffffffffffffffffffff1673ffffffffffffffffffffffffffffffffffffffff16815260200191505060405180910390f35b34801561069257600080fd5b5061069b61182f565b6040518082815260200191505060405180910390f35b3480156106bd57600080fd5b506106c6611fc5565b6040518082815260200191505060405180910390f35b3480156106e857600080fd5b506106f16120d3565b604051808381526020018281526020019250505060405180910390f35b34801561071a57600080fd5b5061074f600480360381019080803573ffffffffffffffffffffffffffffffffffffffff1690602001909291905050506121fd565b005b6000600260009054906101000a900473ffffffffffffffffffffffffffffffffffffffff1673ffffffffffffffffffffffffffffffffffffffff163373ffffffffffffffffffffffffffffffffffffffff1614806107fc5750600360009054906101000a900473ffffffffffffffffffffffffffffffffffffffff1673ffffffffffffffffffffffffffffffffffffffff163373ffffffffffffffffffffffffffffffffffffffff16145b151561080757600080fd5b82610847816040805190810160405280600481526020017f726f636b00000000000000000000000000000000000000000000000000000000815250612264565b8061088d575061088c816040805190810160405280600581526020017f7061706572000000000000000000000000000000000000000000000000000000815250612264565b5b806108d357506108d2816040805190810160405280600881526020017f73636973736f7273000000000000000000000000000000000000000000000000815250612264565b5b15156108de57600080fd5b600060149054906101000a900460ff161515156108fa57600080fd5b600260009054906101000a900473ffffffffffffffffffffffffffffffffffffffff1673ffffffffffffffffffffffffffffffffffffffff163373ffffffffffffffffffffffffffffffffffffffff1614156109d95761095a8484612415565b600681600019169055507f7bdd5e3de94f38e6bca4deaa077cc13d9842ba27214341600342ccf216cd887f336002604051808373ffffffffffffffffffffffffffffffffffffffff1673ffffffffffffffffffffffffffffffffffffffff1681526020018281526020019250505060405180910390a160019150610abd565b600360009054906101000a900473ffffffffffffffffffffffffffffffffffffffff1673ffffffffffffffffffffffffffffffffffffffff163373ffffffffffffffffffffffffffffffffffffffff161415610ab857610a398484612415565b600781600019169055507f7bdd5e3de94f38e6bca4deaa077cc13d9842ba27214341600342ccf216cd887f336002604051808373ffffffffffffffffffffffffffffffffffffffff1673ffffffffffffffffffffffffffffffffffffffff1681526020018281526020019250505060405180910390a160019150610abd565b600091505b5092915050565b60048054600181600116156101000203166002900480601f016020809104026020016040519081016040528092919081815260200182805460018160011615610100020316600290048015610b5a5780601f10610b2f57610100808354040283529160200191610b5a565b820191906000526020600020905b815481529060010190602001808311610b3d57829003601f168201915b505050505081565b6000600260009054906101000a900473ffffffffffffffffffffffffffffffffffffffff1673ffffffffffffffffffffffffffffffffffffffff163373ffffffffffffffffffffffffffffffffffffffff1614158015610c105750600360009054906101000a900473ffffffffffffffffffffffffffffffffffffffff1673ffffffffffffffffffffffffffffffffffffffff163373ffffffffffffffffffffffffffffffffffffffff1614155b1515610c1b57600080fd5b67016345785d8a00008034141515610c3257600080fd5b600060149054906101000a900460ff16151515610c4e57600080fd5b6000600260009054906101000a900473ffffffffffffffffffffffffffffffffffffffff1673ffffffffffffffffffffffffffffffffffffffff161415610d455733600260006101000a81548173ffffffffffffffffffffffffffffffffffffffff021916908373ffffffffffffffffffffffffffffffffffffffff1602179055507f7bdd5e3de94f38e6bca4deaa077cc13d9842ba27214341600342ccf216cd887f336001604051808373ffffffffffffffffffffffffffffffffffffffff1673ffffffffffffffffffffffffffffffffffffffff1681526020018281526020019250505060405180910390a160019150610e41565b6000600360009054906101000a900473ffffffffffffffffffffffffffffffffffffffff1673ffffffffffffffffffffffffffffffffffffffff161415610e3c5733600360006101000a81548173ffffffffffffffffffffffffffffffffffffffff021916908373ffffffffffffffffffffffffffffffffffffffff1602179055507f7bdd5e3de94f38e6bca4deaa077cc13d9842ba27214341600342ccf216cd887f336001604051808373ffffffffffffffffffffffffffffffffffffffff1673ffffffffffffffffffffffffffffffffffffffff1681526020018281526020019250505060405180910390a160019150610e41565b600091505b5090565b6000600260009054906101000a900473ffffffffffffffffffffffffffffffffffffffff1673ffffffffffffffffffffffffffffffffffffffff163373ffffffffffffffffffffffffffffffffffffffff161480610ef05750600360009054906101000a900473ffffffffffffffffffffffffffffffffffffffff1673ffffffffffffffffffffffffffffffffffffffff163373ffffffffffffffffffffffffffffffffffffffff16145b1515610efb57600080fd5b82610f3b816040805190810160405280600481526020017f726f636b00000000000000000000000000000000000000000000000000000000815250612264565b80610f815750610f80816040805190810160405280600581526020017f7061706572000000000000000000000000000000000000000000000000000000815250612264565b5b80610fc75750610fc6816040805190810160405280600881526020017f73636973736f7273000000000000000000000000000000000000000000000000815250612264565b5b1515610fd257600080fd5b600060149054906101000a900460ff16151515610fee57600080fd5b6000600480546001816001161561010002031660029004905014801561102a575060006005805460018160011615610100020316600290049050145b50600260009054906101000a900473ffffffffffffffffffffffffffffffffffffffff1673ffffffffffffffffffffffffffffffffffffffff163373ffffffffffffffffffffffffffffffffffffffff1614801561109a5750600654600019166110948585612415565b60001916145b1561112b5783600490805190602001906110b5929190612741565b507f7bdd5e3de94f38e6bca4deaa077cc13d9842ba27214341600342ccf216cd887f336003604051808373ffffffffffffffffffffffffffffffffffffffff1673ffffffffffffffffffffffffffffffffffffffff1681526020018281526020019250505060405180910390a160019150611230565b600360009054906101000a900473ffffffffffffffffffffffffffffffffffffffff1673ffffffffffffffffffffffffffffffffffffffff163373ffffffffffffffffffffffffffffffffffffffff1614801561119a5750600754600019166111948585612415565b60001916145b1561122b5783600590805190602001906111b5929190612741565b507f7bdd5e3de94f38e6bca4deaa077cc13d9842ba27214341600342ccf216cd887f336003604051808373ffffffffffffffffffffffffffffffffffffffff1673ffffffffffffffffffffffffffffffffffffffff1681526020018281526020019250505060405180910390a160019150611230565b600091505b5092915050565b6000809054906101000a900473ffffffffffffffffffffffffffffffffffffffff1673ffffffffffffffffffffffffffffffffffffffff163373ffffffffffffffffffffffffffffffffffffffff1614151561129257600080fd5b600060149054906101000a900460ff1615156112ad57600080fd5b60008060146101000a81548160ff0219169083151502179055507f7805862f689e2f13df9f062ff482ad3ad112aca9e0847911ed832e158c525b3360405160405180910390a1565b600360009054906101000a900473ffffffffffffffffffffffffffffffffffffffff1681565b600060149054906101000a900460ff1681565b60058054600181600116156101000203166002900480601f0160208091040260200160405190810160405280929190818152602001828054600181600116156101000203166002900480156113c45780601f10611399576101008083540402835291602001916113c4565b820191906000526020600020905b8154815290600101906020018083116113a757829003601f168201915b505050505081565b6000600260009054906101000a900473ffffffffffffffffffffffffffffffffffffffff1673ffffffffffffffffffffffffffffffffffffffff163373ffffffffffffffffffffffffffffffffffffffff16141561147057600060010260065460001916141561143f5760019050611517565b6000600480546001816001161561010002031660029004905014156114675760029050611517565b60039050611517565b600360009054906101000a900473ffffffffffffffffffffffffffffffffffffffff1673ffffffffffffffffffffffffffffffffffffffff163373ffffffffffffffffffffffffffffffffffffffff1614156115125760006001026007546000191614156114e15760019050611517565b6000600580546001816001161561010002031660029004905014156115095760029050611517565b60039050611517565b600090505b90565b60003073ffffffffffffffffffffffffffffffffffffffff1631905090565b6000809054906101000a900473ffffffffffffffffffffffffffffffffffffffff1673ffffffffffffffffffffffffffffffffffffffff163373ffffffffffffffffffffffffffffffffffffffff1614151561159457600080fd5b6000809054906101000a900473ffffffffffffffffffffffffffffffffffffffff1673ffffffffffffffffffffffffffffffffffffffff167ff8df31144d9c2f0f6b59d69b8b98abd5459d07f2742c4df920b25aae33c6482060405160405180910390a260008060006101000a81548173ffffffffffffffffffffffffffffffffffffffff021916908373ffffffffffffffffffffffffffffffffffffffff160217905550565b6000809054906101000a900473ffffffffffffffffffffffffffffffffffffffff1673ffffffffffffffffffffffffffffffffffffffff163373ffffffffffffffffffffffffffffffffffffffff1614151561169657600080fd5b6000809054906101000a900473ffffffffffffffffffffffffffffffffffffffff1673ffffffffffffffffffffffffffffffffffffffff16ff5b6000809054906101000a900473ffffffffffffffffffffffffffffffffffffffff1673ffffffffffffffffffffffffffffffffffffffff163373ffffffffffffffffffffffffffffffffffffffff1614151561172b57600080fd5b600060149054906101000a900460ff1615151561174757600080fd5b6001600060146101000a81548160ff0219169083151502179055507f6985a02210a168e66602d3235cb6db0e70f92b3ba4d376a33c0f3d9434bff62560405160405180910390a1565b6000809054906101000a900473ffffffffffffffffffffffffffffffffffffffff1681565b6000600360009054906101000a900473ffffffffffffffffffffffffffffffffffffffff16905090565b600260009054906101000a900473ffffffffffffffffffffffffffffffffffffffff1681565b6000600260009054906101000a900473ffffffffffffffffffffffffffffffffffffffff16905090565b600080600260009054906101000a900473ffffffffffffffffffffffffffffffffffffffff1673ffffffffffffffffffffffffffffffffffffffff163373ffffffffffffffffffffffffffffffffffffffff1614806118db5750600360009054906101000a900473ffffffffffffffffffffffffffffffffffffffff1673ffffffffffffffffffffffffffffffffffffffff163373ffffffffffffffffffffffffffffffffffffffff16145b15156118e657600080fd5b600060149054906101000a900460ff1615151561190257600080fd5b600060048054600181600116156101000203166002900490501415801561194057506000600580546001816001161561010002031660029004905014155b15611d4e576001600460405180828054600181600116156101000203166002900480156119a45780601f106119825761010080835404028352918201916119a4565b820191906000526020600020905b815481529060010190602001808311611990575b5050915050908152602001604051809103902060056040518082805460018160011615610100020316600290048015611a145780601f106119f2576101008083540402835291820191611a14565b820191906000526020600020905b815481529060010190602001808311611a00575b505091505090815260200160405180910390205490506001811415611ab857600260009054906101000a900473ffffffffffffffffffffffffffffffffffffffff1673ffffffffffffffffffffffffffffffffffffffff166108fc3073ffffffffffffffffffffffffffffffffffffffff16319081150290604051600060405180830381858888f19350505050158015611ab2573d6000803e3d6000fd5b50611c54565b6002811415611b4657600360009054906101000a900473ffffffffffffffffffffffffffffffffffffffff1673ffffffffffffffffffffffffffffffffffffffff166108fc3073ffffffffffffffffffffffffffffffffffffffff16319081150290604051600060405180830381858888f19350505050158015611b40573d6000803e3d6000fd5b50611c53565b600260009054906101000a900473ffffffffffffffffffffffffffffffffffffffff1673ffffffffffffffffffffffffffffffffffffffff166108fc60023073ffffffffffffffffffffffffffffffffffffffff1631811515611ba557fe5b049081150290604051600060405180830381858888f19350505050158015611bd1573d6000803e3d6000fd5b50600360009054906101000a900473ffffffffffffffffffffffffffffffffffffffff1673ffffffffffffffffffffffffffffffffffffffff166108fc3073ffffffffffffffffffffffffffffffffffffffff16319081150290604051600060405180830381858888f19350505050158015611c51573d6000803e3d6000fd5b505b5b602060405190810160405280600081525060049080519060200190611c7a929190612741565b50602060405190810160405280600081525060059080519060200190611ca1929190612741565b506000600681600019169055506000600781600019169055506000600260006101000a81548173ffffffffffffffffffffffffffffffffffffffff021916908373ffffffffffffffffffffffffffffffffffffffff1602179055506000600360006101000a81548173ffffffffffffffffffffffffffffffffffffffff021916908373ffffffffffffffffffffffffffffffffffffffff1602179055506000600881905550809150611fc1565b61012c60085401421115611f9d5760006004805460018160011615610100020316600290049050141515611e0157600260009054906101000a900473ffffffffffffffffffffffffffffffffffffffff1673ffffffffffffffffffffffffffffffffffffffff166108fc3073ffffffffffffffffffffffffffffffffffffffff16319081150290604051600060405180830381858888f19350505050158015611dfb573d6000803e3d6000fd5b50611ea3565b60006005805460018160011615610100020316600290049050141515611ea257600360009054906101000a900473ffffffffffffffffffffffffffffffffffffffff1673ffffffffffffffffffffffffffffffffffffffff166108fc3073ffffffffffffffffffffffffffffffffffffffff16319081150290604051600060405180830381858888f19350505050158015611ea0573d6000803e3d6000fd5b505b5b602060405190810160405280600081525060049080519060200190611ec9929190612741565b50602060405190810160405280600081525060059080519060200190611ef0929190612741565b506000600681600019169055506000600781600019169055506000600260006101000a81548173ffffffffffffffffffffffffffffffffffffffff021916908373ffffffffffffffffffffffffffffffffffffffff1602179055506000600360006101000a81548173ffffffffffffffffffffffffffffffffffffffff021916908373ffffffffffffffffffffffffffffffffffffffff1602179055506000600881905550809150611fc1565b7fffffffffffffffffffffffffffffffffffffffffffffffffffffffffffffffff91505b5090565b600080600260009054906101000a900473ffffffffffffffffffffffffffffffffffffffff1673ffffffffffffffffffffffffffffffffffffffff16148061204557506000600360009054906101000a900473ffffffffffffffffffffffffffffffffffffffff1673ffffffffffffffffffffffffffffffffffffffff16145b1561205357600090506120d0565b60006001026006546000191614806120745750600060010260075460001916145b1561208257600190506120d0565b6000600480546001816001161561010002031660029004905014806120bd575060006005805460018160011615610100020316600290049050145b156120cb57600290506120d0565b600390505b90565b6000806000806000600260009054906101000a900473ffffffffffffffffffffffffffffffffffffffff1673ffffffffffffffffffffffffffffffffffffffff161415156121655760006001026006546000191614156121365760019150612164565b60006004805460018160011615610100020316600290049050141561215e5760029150612163565b600391505b5b5b6000600360009054906101000a900473ffffffffffffffffffffffffffffffffffffffff1673ffffffffffffffffffffffffffffffffffffffff161415156121f15760006001026007546000191614156121c257600190506121f0565b6000600580546001816001161561010002031660029004905014156121ea57600290506121ef565b600390505b5b5b81819350935050509091565b6000809054906101000a900473ffffffffffffffffffffffffffffffffffffffff1673ffffffffffffffffffffffffffffffffffffffff163373ffffffffffffffffffffffffffffffffffffffff1614151561225857600080fd5b61226181612647565b50565b6000816040516020018082805190602001908083835b60208310151561229f578051825260208201915060208101905060208303925061227a565b6001836020036101000a0380198251168184511680821785525050505050509050019150506040516020818303038152906040526040518082805190602001908083835b60208310151561230857805182526020820191506020810190506020830392506122e3565b6001836020036101000a038019825116818451168082178552505050505050905001915050604051809103902060001916836040516020018082805190602001908083835b602083101515612372578051825260208201915060208101905060208303925061234d565b6001836020036101000a0380198251168184511680821785525050505050509050019150506040516020818303038152906040526040518082805190602001908083835b6020831015156123db57805182526020820191506020810190506020830392506123b6565b6001836020036101000a03801982511681845116808217855250505050505090500191505060405180910390206000191614905092915050565b6000816040516020018082805190602001908083835b602083101515612450578051825260208201915060208101905060208303925061242b565b6001836020036101000a0380198251168184511680821785525050505050509050019150506040516020818303038152906040526040518082805190602001908083835b6020831015156124b95780518252602082019150602081019050602083039250612494565b6001836020036101000a0380198251168184511680821785525050505050509050019150506040518091039020836040516020018082805190602001908083835b60208310151561251f57805182526020820191506020810190506020830392506124fa565b6001836020036101000a0380198251168184511680821785525050505050509050019150506040516020818303038152906040526040518082805190602001908083835b6020831015156125885780518252602082019150602081019050602083039250612563565b6001836020036101000a0380198251168184511680821785525050505050509050019150506040518091039020186040516020018082600019166000191681526020019150506040516020818303038152906040526040518082805190602001908083835b60208310151561261257805182526020820191506020810190506020830392506125ed565b6001836020036101000a0380198251168184511680821785525050505050509050019150506040518091039020905092915050565b600073ffffffffffffffffffffffffffffffffffffffff168173ffffffffffffffffffffffffffffffffffffffff161415151561268357600080fd5b8073ffffffffffffffffffffffffffffffffffffffff166000809054906101000a900473ffffffffffffffffffffffffffffffffffffffff1673ffffffffffffffffffffffffffffffffffffffff167f8be0079c531659141344cd1fd0a4f28419497f9722a3daafe3b4186f6b6457e060405160405180910390a3806000806101000a81548173ffffffffffffffffffffffffffffffffffffffff021916908373ffffffffffffffffffffffffffffffffffffffff16021790555050565b828054600181600116156101000203166002900490600052602060002090601f016020900481019282601f1061278257805160ff19168380011785556127b0565b828001600101855582156127b0579182015b828111156127af578251825591602001919060010190612794565b5b5090506127bd91906127c1565b5090565b6127e391905b808211156127df5760008160009055506001016127c7565b5090565b905600a165627a7a723058207c697b5a03d904818833370e78b5af0388d798243b1f201586f79294eaedc3c60029",
  "source": "pragma solidity 0.4.24;\r\n\r\nimport \"openzeppelin-solidity/contracts/ownership/Ownable.sol\";\r\nimport \"openzeppelin-solidity/contracts/lifecycle/Pausable.sol\";\r\n\r\n/* \r\n@title RockPaperEth\r\n@author Brendan Muscat <brendan.muscat@gmail.com>\r\n@description Rock Paper Scissors on the ethereum blockchain!  \r\n@address http://rock-paper-scissors.com\r\n*/\r\n\r\ncontract RockPaperEth is Ownable, Pausable {\r\n\r\n    mapping (string => mapping(string => int)) results;\r\n    address public player1;\r\n    address public player2;\r\n    string public player1Hand;\r\n    string public player2Hand;\r\n    bytes32 player1HandHash;\r\n    bytes32 player2HandHash;\r\n    uint countdownBegins;\r\n\r\n    event PlayerPhase(\r\n        address _player,\r\n        uint _phase\r\n    );\r\n\r\n    modifier notRegistered() { \r\n        /** makes sure a player is NOT already registered */\r\n        require (msg.sender != player1 && msg.sender != player2);\r\n        _;\r\n    }\r\n    modifier notNotRegistered() { \r\n        /** makes sure a player is already registered */\r\n        require (msg.sender == player1 || msg.sender == player2);\r\n        _;\r\n    }\r\n    \r\n    modifier notPoor(uint amount) {\r\n        /** ensures the player is not a peasant and has set the right amount. Currently set to 0.1 ether because games aren't for poor people */\r\n        require (msg.value == amount);\r\n        _;\r\n    }\r\n\r\n    modifier notStupid(string hand) {\r\n        /** string validation for encrypt */\r\n        require (compareStrings(hand,\"rock\") || compareStrings(hand,\"paper\") || compareStrings(hand,\"scissors\"));\r\n        _;\r\n    }\r\n    \r\n    constructor() public payable \r\n    {   \r\n        /** constructor holding results matrix for determining winners */\r\n        results[\"paper\"][\"rock\"] = 1;\r\n        results[\"paper\"][\"paper\"] = 0;\r\n        results[\"paper\"][\"scissors\"] = 2;\r\n        results[\"rock\"][\"rock\"] = 0;\r\n        results[\"rock\"][\"paper\"] = 2;\r\n        results[\"rock\"][\"scissors\"] = 1;\r\n        results[\"scissors\"][\"rock\"] = 2;\r\n        results[\"scissors\"][\"paper\"] = 1;\r\n        results[\"scissors\"][\"scissors\"] = 0;\r\n    }\r\n\r\n\r\n    function register() public payable notRegistered notPoor(0.1 ether) whenNotPaused returns (bool x)\r\n    {\r\n        /** initial registration. first player to register is player1, second player to register is player2 */\r\n        if (player1 == 0)\r\n        {\r\n            player1 = msg.sender;\r\n            emit PlayerPhase(msg.sender,1);\r\n            return true;\r\n        }\r\n        else if (player2 == 0)\r\n        {\r\n            player2 = msg.sender;\r\n            emit PlayerPhase(msg.sender,1);\r\n            return true;\r\n        }\r\n        return false;\r\n    }\r\n\r\n    function encrypt(string hand, string random) public notNotRegistered notStupid(hand) whenNotPaused returns (bool x)\r\n    {\r\n        /** Encrypts each players initial hands */\r\n        if (msg.sender == player1)\r\n        {\r\n            player1HandHash = encodeTheSecret(hand,random);\r\n            emit PlayerPhase(msg.sender,2);\r\n            return true;\r\n        }\r\n        else if (msg.sender == player2)\r\n        {\r\n            player2HandHash = encodeTheSecret(hand,random);\r\n            emit PlayerPhase(msg.sender,2);\r\n            return true;\r\n        }\r\n        return false;\r\n    }\r\n\r\n    function decrypt(string hand, string random) public notNotRegistered notStupid(hand) whenNotPaused returns (bool x)\r\n    {\r\n        /** second player is given about 5 minutes to respond after first reveal */\r\n        if (bytes(player1Hand).length == 0 && bytes(player2Hand).length == 0)\r\n            countdownBegins == now;\r\n\r\n        /** stores the players hand in easy readable format if encryption and hand match */\r\n        if (msg.sender == player1 && encodeTheSecret(hand,random) == player1HandHash)\r\n        {\r\n            player1Hand = hand;\r\n            emit PlayerPhase(msg.sender,3);\r\n            return true;\r\n        }\r\n        if (msg.sender == player2 && encodeTheSecret(hand,random) == player2HandHash)\r\n        {\r\n            player2Hand = hand;\r\n            emit PlayerPhase(msg.sender,3);\r\n            return true;\r\n        }\r\n        return false;\r\n\r\n    }\r\n\r\n    function finish() public notNotRegistered whenNotPaused returns (int x)\r\n    {\r\n        if (bytes(player1Hand).length != 0 && bytes(player2Hand).length != 0) // This will trigger when both players have made a hand\r\n        {\r\n            int winner = results[player1Hand][player2Hand];\r\n            if (winner == 1)\r\n                /** player 1 rocks and gets the winnings */\r\n                player1.transfer(address(this).balance);\r\n            else if (winner == 2)\r\n                /** player 2 probably didn't pick scissors */\r\n                player2.transfer(address(this).balance);\r\n            else\r\n            {\r\n                /** wait, nobody won? this game is shit */\r\n                player1.transfer(address(this).balance/2);\r\n                player2.transfer(address(this).balance);\r\n            }\r\n\r\n            /** reset everything ready for the next game */\r\n            player1Hand = \"\";\r\n            player2Hand = \"\";\r\n            player1HandHash = \"\";\r\n            player2HandHash = \"\";\r\n            player1 = 0;\r\n            player2 = 0;\r\n            countdownBegins = 0;\r\n            return winner;\r\n        }\r\n        else if (now > countdownBegins + 300)\r\n        {\r\n            /** someone got hit by a bus or doesnt want to play. Whoever revealed first is the winner. */\r\n            if (bytes(player1Hand).length != 0)\r\n                player1.transfer(address(this).balance);\r\n            else if (bytes(player2Hand).length != 0)\r\n                player2.transfer(address(this).balance);\r\n\r\n            /** reset everything ready for the next game */\r\n            player1Hand = \"\";\r\n            player2Hand = \"\";\r\n            player1HandHash = \"\";\r\n            player2HandHash = \"\";\r\n            player1 = 0;\r\n            player2 = 0;\r\n            countdownBegins = 0;\r\n            return winner;\r\n        }\r\n        else\r\n            return -1;\r\n    }\r\n    \r\n    /** Internal game functions  */\r\n    \r\n    function compareStrings (string a, string b) private pure returns (bool)\r\n    {\r\n        /** or yanno, \"==\" */\r\n        return keccak256(abi.encodePacked(a)) == keccak256(abi.encodePacked(b));\r\n    }\r\n\r\n    function encodeTheSecret(string a, string b) private pure returns (bytes32 x)\r\n    {\r\n        /** super secret hashing function hashes your hand and your secret, hence making it UNHACKABLE. I mean, just look at all the brackets */\r\n        return keccak256(abi.encodePacked(keccak256(abi.encodePacked(a)) ^ keccak256(abi.encodePacked(b))));\r\n    }\r\n    \r\n    /** External game functions */\r\n\r\n    function whatPhaseAmI() external view returns (int x)\r\n    {\r\n        /** returns which phase the calling player is in */\r\n        if (msg.sender == player1)\r\n        {\r\n            if (player1HandHash == 0)\r\n                return 1;\r\n            else if (bytes(player1Hand).length == 0 )\r\n                return 2;\r\n            else\r\n                return 3;\r\n        }\r\n        else if (msg.sender == player2)\r\n        {\r\n            if (player2HandHash == 0)\r\n                return 1;\r\n            else if (bytes(player2Hand).length == 0 )\r\n                return 2;\r\n            else\r\n                return 3;\r\n        }\r\n        else\r\n            return 0;\r\n\r\n    }\r\n\r\n    function whatPhaseIsIt() external view returns (int x)\r\n    {\r\n        /** returns which phase the game is in from a global perspective */\r\n        if (player1 == 0 || player2 == 0)\r\n            return 0;\r\n        else if (player1HandHash == 0 || player2HandHash == 0)\r\n            return 1;\r\n        else if (bytes(player1Hand).length == 0 || bytes(player2Hand).length == 0 )\r\n            return 2;\r\n        else\r\n            return 3;\r\n    }\r\n\r\n    function whatPhaseAreThePlayers() external view returns (int x, int y)\r\n    {\r\n        /** returns which phase each of the players are in */\r\n        int a;\r\n        int b;\r\n        if (player1 != 0)\r\n        {\r\n            if (player1HandHash == 0)\r\n                a = 1;\r\n            else if (bytes(player1Hand).length == 0 )\r\n                a = 2;\r\n            else\r\n                a = 3;\r\n        }\r\n        if (player2 != 0)\r\n        {\r\n            if (player2HandHash == 0)\r\n                b = 1;\r\n            else if (bytes(player2Hand).length == 0 )\r\n                b = 2;\r\n            else\r\n                b = 3;\r\n        }\r\n        return (a,b);\r\n    }\r\n\r\n    function whoIsPlayer1() external view returns (address x)\r\n    {\r\n        /** returns the address of player 1 */\r\n        return player1;\r\n    }\r\n    \r\n    function whoIsPlayer2() external view returns (address x)\r\n    {\r\n        /** returns the address of player 2 */\r\n        return player2;\r\n    }\r\n\r\n    function getContractBalance () external view returns (uint x)\r\n    {\r\n        /** gets the contract balance. */\r\n        return address(this).balance;\r\n    }\r\n\r\n    function destroy() public onlyOwner {\r\n        /** I DON'T WANT TO PLAY THIS GAME ANYMORE */\r\n        selfdestruct(owner);\r\n    }\r\n\r\n}",
  "sourcePath": "C:\\Users\\brend\\Documents\\rockpapereth\\contracts\\RockPaperEth.sol",
  "compiler": {
    "name": "solc",
    "version": "0.4.24+commit.e67f0147.Emscripten.clang"
  },
  "schemaVersion": "2.0.1",
  "updatedAt": "2018-08-19T13:15:20.131Z"
}